:020000040800F2
:10000000280400208D100008E9100008EB100008FB
:10001000EF100008F3100008F710000800000000BF
:10002000000000000000000000000000FB100008BD
:10003000FD10000800000000FF100008011100087A
:10004000A7100008A7100008A7100008A7100008B4
:10005000A7100008A7100008A7100008A7100008A4
:10006000A7100008A7100008A7100008A710000894
:10007000A7100008A7100008A7100008A710000884
:10008000A7100008A7100008A7100008A710000874
:10009000A7100008A7100008A7100008A710000864
:1000A000A7100008A7100008A7100008A710000854
:1000B000A7100008A7100008A7100008A710000844
:1000C000A7100008A7100008A7100008A710000834
:1000D000A7100008A7100008E7110008A7100008E3
:1000E000A7100008A7100008A7100008A710000814
:1000F000A7100008A7100008A7100008A710000804
:10010000A7100008A7100008A7100008A7100008F3
:10011000A7100008A7100008A7100008A7100008E3
:10012000A7100008A7100008A7100008A7100008D3
:10013000A7100008A7100008A7100008A7100008C3
:10014000A7100008A7100008A7100008A7100008B3
:10015000A7100008A7100008A7100008A7100008A3
:10016000A7100008A7100008A7100008A710000893
:10017000A7100008A7100008A7100008A710000883
:10018000A7100008A7100008DFF80CD001F04CF809
:1001900000480047B11000082804002032490143FC
:1001A000324A1160704770B5002100230F22C478D5
:1001B0001CB32E4C246804F4E064C4F5E064C4F37A
:1001C0000721C1F10404E3B20A4144789C40E1B242
:1001D0008478144021430C07210E254C0578615585
:1001E000047804F01F050124AC4005786D11AD00C2
:1001F00005F1E025C5F8004109E0047804F01F0589
:100200000124AC401B4D0678761145F8264070BDA0
:10021000194A0A400243154B1B1F1A60704739B137
:10022000124A121D12680243104B1B1D1A6006E091
:100230000E4A121D126882430C4B1B1D1A60704738
:10024000042808D14FF0E021096941F004014FF082
:10025000E022116107E04FF0E021096921F004017B
:100260004FF0E022116170470000FA050CED00E04C
:1002700000E400E080E100E080FFFF1F10B50446CD
:100280008C48844208D10121084600F000FB00217F
:10029000012000F0FCFA5EE08748844208D1012189
:1002A000022000F0F4FA0021022000F0F0FA52E0FF
:1002B0008248844208D10121042000F0E8FA00219C
:1002C000042000F0E4FA46E07D48844208D1012190
:1002D000082000F0DCFA0021082000F0D8FA3AE00B
:1002E0007848844208D10121102000F0D0FA002182
:1002F000102000F0CCFA2EE07348844208D101218E
:10030000202000F0C4FA0021202000F0C0FA22E0F2
:100310006E48844208D10121402000F0B8FA002143
:10032000402000F0B4FA16E06948844208D1012167
:10033000802000F0ACFA0021802000F0A8FA0AE04A
:100340006448844207D10121801500F0A0FA002101
:10035000A01500F09CFA10BDF0B50A46002100235C
:10036000002400BF3DE0012505FA01F3156805EA08
:1003700003049C4234D105684F000326BE40B543B8
:10038000056015794E00B54006683543056015795E
:10039000012D02D01579022D16D185684F00032654
:1003A000BE40B543856055794E00B54086683543FB
:1003B0008560456801268E40B5434560456896795D
:1003C0008E40B6B235434560C5684F000326BE4037
:1003D000B543C560D5794E00B540C6683543C560A4
:1003E000491C1029BFD3F0BD4FF6FF7101600021F9
:1003F000017141718171C171704708B54FF480324C
:100400000092009A0A430092009AC261C161009A68
:10041000C261C2690092C269009208BD0246002012
:1004200013690B400BB1012000E00020704701462A
:10043000086980B270470246002053690B400BB137
:10044000012000E0002070470146486980B27047F3
:1004500001837047418370470AB1018300E0418303
:1004600070474161704742694A4042617047F0B548
:10047000002300244D07ED0E02FA05F3CE1000F123
:10048000200555F826504E07F70E0F26BE40B543FF
:10049000CF1000F1200646F82750CE1000F12005BD
:1004A00055F8265045EA0304CE1000F1200545F822
:1004B0002640F0BD00000240000402400008024057
:1004C000000C0240001002400014024000180240DC
:1004D000001C024000200240FA48006840F0010081
:1004E000F84908600020F74908310860F5480068BD
:1004F000F5490840F3490860F448091D0860081FE1
:10050000006820F48020091F08600020ED490C31AC
:10051000086070470021EB4A921C11701146087068
:10052000704710B501460022002300204A11012A1D
:1005300002D1E44C236808E0022A03D1E14C703474
:10054000236802E0DF4C7434236801F01F020124A9
:1005500094401C400CB1012000E0002010BD38B5D3
:10056000002000900024002500BF3120FFF7D9FFB4
:1005700005460098401C00900098B0F5A06F01D08F
:10058000002DF2D03120FFF7CCFF08B1012400E0AC
:100590000024204638BD01460020CA4A106820F0D9
:1005A000F80040EAC10010607047C9490860704710
:1005B0000021C44A703211701170012802D0042841
:1005C0000AD104E00121BF4A7032117005E0052113
:1005D000BC4A7032117000E000BF00BF7047BD49D7
:1005E0000860704770B5049C41EA82150126C6EB8D
:1005F000530645EA0645054345EA0465B14E361DF6
:10060000356070BDB24908667047820142EA0172E6
:10061000AC4B84331A607047AD4988667047AC496B
:10062000C864704702460020A64B0833186820F0C3
:10063000EC6042EA01031843A24B0833186070478C
:10064000024600209F4B0833186820F0784042EAA9
:10065000010318439B4B0833186070470146002084
:10066000984A0832106820F0030008431060704771
:1006700094480830006800F00C00704701460020E4
:10068000904A0832106820F0F0000843106070476C
:10069000014600208B4A0832106820F4E0500843DD
:1006A0001060704701460020864A0832106820F426
:1006B000604040EAC10010607047F0B500210022A0
:1006C00000240225002602237E4F08373F6807F0EA
:1006D0000C0121B1042905D0082937D105E07E4F4E
:1006E000076036E07D4F076033E0764F3F1D3F687F
:1006F000C7F38056734F3F1D3F6807F03F036EB14D
:10070000764FB7FBF3F7DFF8BCC10CF1040CDCF853
:1007100000C0CCF3881C07FB0CF40CE06E4FB7FB59
:10072000F3F7DFF8A0C10CF1040CDCF800C0CCF347
:10073000881C07FB0CF4634F3F1D3F68C7F301475C
:100740007F1C7D00B4FBF5F7076002E0624F076095
:1007500000BF00BF5B4F08373F6807F0F001090991
:100760005F4F7A5C0768D7404760564F08373F684D
:1007700007F4E051890A5A4F7A5C4768D74087608E
:10078000504F08373F6807F46041490B544F7A5C7B
:100790004768D740C760F0BD002100F44072B2F551
:1007A000407F0AD1474A0832116821F4F8114D4AB6
:1007B00002401143434A08321160424A70321268C3
:1007C000C0F30B031A433F4B70331A607047414923
:1007D0004439086070473F494039086070474249D2
:1007E0000860704739B1374A303212680243354BDE
:1007F00030331A6006E0334A303212688243314B9C
:1008000030331A60704739B12E4A343212680243CD
:100810002C4B34331A6006E02A4A34321268824381
:10082000284B34331A60704739B1264A383212687F
:100830000243244B38331A6006E0224A38321268E9
:100840008243204B38331A60704739B11D4A403219
:10085000126802431B4B40331A6006E0194A4032CB
:1008600012688243174B40331A60704739B1154AFA
:10087000443212680243134B44331A6006E0114AB3
:100880004432126882430F4B44331A60704739B1C7
:100890000C4A1032126802430A4B10331A6006E009
:1008A000084A103212688243064B10331A607047B0
:1008B000E1B1044A143212680243024B14331A6045
:1008C00019E0000000380240FFFFF6FE103000245F
:1008D00000004742800E47420024F40040787D012A
:1008E00000000020FFFCFF0F5C0147425B4A1268DA
:1008F00082435A4B1A60704739B1584A121D126828
:100900000243564B1B1D1A6006E0544A121D126822
:100910008243524B1B1D1A60704739B14F4A0C324B
:10092000126802434D4B0C331A6006E04B4A0C32FE
:1009300012688243494B0C331A60704739B1474AF9
:10094000103212680243454B10331A6006E0434AE6
:10095000103212688243414B10331A60704739B12C
:100960003E4A3C32126802433C4B3C331A6006E07C
:100970003A4A3C3212688243384B3C331A60704723
:1009800039B1364A403212680243344B40331A6060
:1009900006E0324A403212688243304B40331A60DC
:1009A000704739B12D4A4432126802432B4B44330D
:1009B0001A6006E0294A443212688243274B4433C6
:1009C0001A60704739B1254A4C3212680243234BF2
:1009D0004C331A6006E0214A4C32126882431F4BA6
:1009E0004C331A60704739B11C4A503212680243C6
:1009F0001A4B50331A6006E0184A5032126882438C
:100A0000164B50331A60704739B1144AD21F12780E
:100A10000243124BDB1F1A7006E0104AD21F1278F5
:100A200082430E4BDB1F1A7070470C486030006821
:100A300040F080700949603108607047014600202D
:100A4000064A083A12680A400AB1012000E0002074
:100A500070470249891F087070470000143802402F
:100A600010B50446F748844208D101211020FFF751
:100A700065FF00211020FFF761FF3EE0F24884424D
:100A800009D101214804FFF748FF00214FF400304D
:100A9000FFF743FF31E0ED48844209D1012188048A
:100AA000FFF73BFF00214FF48020FFF736FF24E0E3
:100AB000E748844209D10121C804FFF72EFF002135
:100AC0004FF40020FFF729FF17E0E248844209D1E4
:100AD00001210805FFF721FF00214FF48010FFF7E7
:100AE0001CFF0AE0DC48844207D101212020FFF7E7
:100AF00025FF00212020FFF721FF10BD2DE9FF4732
:100B000005460E460024A14600BFA046B08900B1AC
:100B100000BF2C8A24F44054F08804432C82AC8912
:100B200041F20C608443B0883189084371890843DD
:100B30000443AC81AC8A24F44074B0890443AC8291
:100B40006846FFF7BAFDBF48854202D0C2488542D9
:100B500002D1DDF80C9001E0DDF80890A88900F4DE
:100B6000004040B109EBC90000EB091031684900B1
:100B7000B0FBF1F707E009EBC90000EB09103168A1
:100B80008900B0FBF1F76420B7FBF0F00401200905
:100B9000642101FB1078A88900F4004040B13220A4
:100BA00000EBC800B0FBF1F000F00700044308E0E0
:100BB000322000EB08106421B0FBF1F000F00F00D0
:100BC00004432C81BDE8FF874FF4165101600021DA
:100BD0008180C18001810C21418100218181704788
:100BE00010B502460020108A20F470600B884C88F3
:100BF00023438C882343CC8823431843108210BDA1
:100C00000021018041808180C180704721B18289AB
:100C100042F40052828104E082894DF6FF731A404B
:100C200082817047028B02F47F420283028B0A4367
:100C30000283704721B1828942F40042828103E03D
:100C40008289C2F30E028281704721B1828A42F406
:100C50000062828204E0828A4FF2FF731A4082822D
:100C60007047C1F308028280704701468888C0F34C
:100C700008007047028A4FF6F0731A400282028A17
:100C80000A430282704721B1828942F002028281C6
:100C900004E082894FF6FD731A4082817047828991
:100CA0004FF2FF731A40828182890A438281704722
:100CB000028A4FF6DF731A400282028A0A430282D6
:100CC000704721B1028A42F48042028204E0028A23
:100CD0004BF6FF731A4002827047818941F001018F
:100CE0008181704721B1828A42F00802828204E049
:100CF000828A4FF6F7731A4082827047028BD2B213
:100D00000283028B42EA01220283704721B1828A68
:100D100042F02002828204E0828A4FF6DF731A409A
:100D20008282704721B1828A42F01002828204E0FE
:100D3000828A4FF6EF731A4082827047828A4FF69A
:100D4000FB731A408282828A0A438282704721B1F1
:100D5000828A42F00202828204E0828A4FF6FD73A8
:100D60001A40828270471AB1838A0B43838202E061
:100D7000838A8B4383827047F0B5034600240026A4
:100D80000025002040F66A17B94200D100BF18467E
:100D9000C1F3421401F01F06012707FA06F5012CE2
:100DA00001D10C3004E0022C01D1103000E01430ED
:100DB0001AB107682F43076002E00768AF43076076
:100DC000F0BD02460020B1F5007F00D100BF1388BE
:100DD0000B400BB1012000E00020704701F40072CD
:100DE000B2F5007F00D100BFCA430280704770B5E2
:100DF0000246002400230025002040F66A16B14276
:100E000000D100BFC1F3421501F01F03012606FA0D
:100E100003F3012D02D19689334006E0022D02D161
:100E2000168A334001E0968A33400C12012606FAF6
:100E300004F41688344013B10CB1012000E0002006
:100E400070BD000000100140004400400048004018
:100E5000004C0040005000400014014010B500223A
:100E6000002340F66A14A14200D100BF0A120124F7
:100E70009440A3B2DC43048010BD00000CB50020F8
:100E8000019000907648006840F480307449086012
:100E900000BF7348006800F4003000900198401CC7
:100EA0000190009818B90198B0F5A06FF1D16C4885
:100EB000006800F4003010B10120009001E0002033
:100EC00000900098012846D165484030006840F005
:100ED00080506349403108606248006840F48040B7
:100EE000604908605E48083000685D490831086064
:100EF0000846006840F4004008600846006840F476
:100F0000A05008605848091F0860081F006840F09A
:100F10008070091F086000BF5148006800F0007031
:100F20000028F9D040F20560504908604C4808306C
:100F3000006820F003004A4908310860084600684C
:100F400040F00200086000BF45480830006800F02B
:100F50000C000828F8D10CBD10B54548006840F4D5
:100F60007000434908603E48006840F001003C4979
:100F7000086000203A4908310860394800683D4956
:100F80000840374908603C48091D0860081F006890
:100F900020F48020091F0860002031490C310860CE
:100FA000FFF76CFF4FF0006031498039086010BDD9
:100FB00070B500200022022300240221284D0835AC
:100FC0002D6805F00C0020B1042806D0082834D183
:100FD00007E02A4D2A4E356033E02A4D284E356011
:100FE0002FE01F4D2D1D2D68C5F380541C4D2D1D68
:100FF0002D6805F03F0154B1224DB5FBF1F5184EB7
:10100000361D3668C6F3881605FB06F209E01B4D4F
:10101000B5FBF1F5124E361D3668C6F3881605FB92
:1010200006F20F4D2D1D2D68C5F301456D1C6B009B
:10103000B2FBF3F5124E356003E0104D104E3560F3
:1010400000BF00BF064D08352D68C5F303150E4ED1
:10105000705D0B4D2D68C540094E356070BD0000B8
:10106000003802400070004019544007003C024024
:1010700088ED00E0FFFFF6FE103000240024F400AD
:101080001000002040787D011400002006488047B1
:1010900006480047FEE7FEE7FEE7FEE7FEE7FEE75D
:1010A000FEE7FEE7FEE7FEE7590F000889010008AA
:1010B00000F034F802A000F0C9F800BFFEE700001D
:1010C0005375636365737366756C6C7920707269B0
:1010D0006E7420737472696E67207669612073651F
:1010E0007269616C00000000704700BFFEE700BF3E
:1010F000FEE700BFFEE700BFFEE77047704770479E
:101100007047000000BF404A128802F04002002AE7
:10111000F9D0C2B23C4B1B1D1A80704700B587B096
:1011200001213A48FFF75EFB01214804FFF78DFBE0
:10113000072202213648FFF79AF907220321344893
:10114000FFF795F90C20019002208DF8080000208F
:101150008DF80A0003208DF8090000208DF80B009F
:1011600001A92B48FFF7F8F82748FFF779FC4FF45F
:10117000E13003900020ADF81000ADF81200ADF89A
:1011800014000C20ADF816000020ADF8180003A9DB
:101190001D48FFF7B3FC26208DF8000003208DF8D2
:1011A000010001208DF802008DF803006846FEF76B
:1011B000FAFF012240F224411348FFF7DDFD01212F
:1011C0001148FFF723FD07B000BD10B5044600BF6E
:1011D00040210D48FFF7F5FD0028F9D021460A48C7
:1011E000FFF73FFD10BD10B540F224410648FFF760
:1011F000FEFD38B107A000F029F840F22441024872
:10120000FFF72CFE10BD000000440040010020004C
:101210000000024049276D20696E20495251486103
:101220006E646C65720A0000064C074D06E0E068CB
:1012300040F0010394E8070098471034AC42F6D31D
:10124000FEF7A6FF9C120008BC120008014A0249E2
:1012500000F013B8051100082400002002E008C8BF
:10126000121F08C1002AFAD170477047002001E020
:1012700001C1121F002AFBD170472DE9F04116462B
:101280000F460446002503E03946B047641C6D1C38
:1012900020780028F8D12846BDE8F081BC1200086B
:1012A00000000020280000005C120008E412000882
:1012B00028000020000400006C120008000000005C
:1012C000010203040102030406070809007A030A65
:1012D00000000000000000000102030406070809E6
:0412E000000000000A
:040000050800018965
:00000001FF
